:100000000C94A7000C94C4000C94C4000C94C4007D
:100010000C94C4000C94C4000C94C4000C94D2033F
:100020000C94C4000C94C4000C94C4000C94C40040
:100030000C94C4000C94C4000C94C4000C94C40030
:100040000C94C4000C94C4000C94C4000C94C40020
:100050000C94C40000407A10F35A00A0724E1809A4
:100060000010A5D4E80000E87648170000E40B541F
:10007000020000CA9A3B000000E1F50500008096EE
:100080009800000040420F000000A0860100000020
:10009000102700000000E8030000000064000000DA
:1000A00000000A00000000000100000000002C76A3
:1000B000D888DC674F0823DFC1DFAE59E1B1B796BE
:1000C000E5E3E453C63AE651997696E8E6C284261B
:1000D000EB898C9B62ED407C6FFCEFBC9C9F40F2F7
:1000E000BAA56FA5F490055A2AF75C936B6CF96773
:1000F0006DC11BFCE0E40D47FEF520E6B500D0ED38
:10010000902E0300943577050080841E080000209F
:100110004E0A000000C80C333333330F986E12833D
:100120001141EF8D2114893BE65516CFFEE6DB1811
:10013000D1844B381BF77C1D901DA4BBE4242032D6
:1001400084725E228100C9F124ECA1E53D271124CF
:100150001FBECFE5D8E0DEBFCDBF10E0A0E6B0E027
:10016000E8E4F1E102C005900D92A837B107D9F794
:1001700020E0A8E7B0E001C01D92AA38B207E1F77D
:100180000E94F9030C94A2080C94000087B18064CB
:1001900087B986B1876886B9089597B1907F8F70C7
:1001A000892B87B986B1806486B93699FECF84B130
:1001B00095B1089588BB82B38F7E82BB82B3806481
:1001C00082BB81EE94E00197F1F700C0000082B39A
:1001D0008F7B82BB81EE94E00197F1F700C00000B5
:1001E000089588BB82B3806182BB82B3806482BB86
:1001F00081EE94E00197F1F700C0000082B38F7B9D
:1002000082BB81EE94E00197F1F700C000000895F1
:100210008FEF87BB81B3806781BB81EE94E001974C
:10022000F1F700C0000088E30E94DA008CE00E9431
:10023000DA0086E00E94DA0081E00E94DA0081EEB6
:1002400094E00197F1F700C0000008950F931F9309
:10025000CF93DF938C01C0E0D0E003C00E94F10097
:100260002196F801EC0FFD1F80818111F7CFDF91FE
:10027000CF911F910F910895CF93DF93EA018823C7
:1002800069F0813011F4605C09C0823011F4605F64
:1002900005C0833011F4605B01C060E0862F806888
:1002A0000E94DA00CE010E942601DF91CF910895CD
:1002B0004F925F926F927F928F929F92AF92BF9276
:1002C000CF92DF92EF92FF920F931F93CF93DF9322
:1002D000CDB7DEB7C455D1090FB6F894DEBF0FBE57
:1002E000CDBF00E010E0C12CD12C760146015701B2
:1002F0007BC082E00E94CD00BC0180E090E00E94C3
:10030000EF042B013C0183E00E94CD00BC0180E0A2
:1003100090E00E94EF0465966CAF7DAF8EAF9FAF0B
:10032000659720E030E040EA50E4C301B2010E944A
:10033000A10520E030E040E85AE30E94A1052CEE40
:1003400031E548EB5DE30E940C0420E030E048E03A
:1003500051E40E94A10526E636E646EB50E40E94F1
:100360000B0420E030E040E251E40E94A1052B01A3
:100370003C0120E030E040EA50E465966CAD7DAD94
:100380008EAD9FAD65970E94A10520E030E040E86A
:100390005AE30E94A10520E030E040E250E40E94D0
:1003A0000B049F772FE832EC45E75DE30E947D0464
:1003B00065966CAF7DAF8EAF9FAF6597A30192013D
:1003C000C501B4010E940C044B015C0165962CAD83
:1003D0003DAD4EAD5FAD6597C701B6010E940C04FF
:1003E0006B017C010F5F1F4F083E83E018070CF480
:1003F00080CF20E030E04AE754E4C501B4010E9418
:100400007D044B015C0160938600709387008093AC
:1004100088009093890020E030E04AE754E4C70167
:10042000B6010E947D0460938200709383008093E4
:1004300084009093850086E59DE39A8389831B82DF
:100440008E010B5E1F4F22E030E045E050E0C50119
:10045000B4010E940E06B801CE0101960E942E063C
:10046000AE014F5F5F4F60E080E00E943C0189E495
:100470009DE39AA789A71BA66091820070918300D3
:100480008091840090918500085D1F4F22E030E04C
:1004900044E050E00E940E06B801CE0189960E9409
:1004A0002E06AE01475D5F4F69E080E00E943C018F
:1004B000CC5ADF4F0FB6F894DEBF0FBECDBFDF9131
:1004C000CF911F910F91FF90EF90DF90CF90BF9051
:1004D000AF909F908F907F906F905F904F90089516
:1004E0008F929F92AF92BF92CF92DF92EF92FF9244
:1004F0000F931F93CF93DF93CDB7DEB7C857D109C2
:100500000FB6F894DEBF0FBECDBF0E9458016091B8
:1005100086007091870080918800909189002091D9
:1005200082003091830040918400509185000E94A8
:10053000A1054B015C0120E030E04AE754E40E9451
:100540007D0420E53DE33A8329831B828E010B5E07
:100550001F4F22E030E044E050E00E940E06B80158
:1005600004511109C8010E942E06F80101900020D3
:10057000E9F731970F2EFBE6EF2EF7E5FF2EF02D72
:10058000F182E0821282A80160E081E00E943C01D9
:10059000609178007091790080917A0090917B0051
:1005A000681B790B80E090E00E94EF049B01AC0196
:1005B000C501B4010E94A10520E03AEB4BE55AE4E5
:1005C0000E947D044B015C0120917E0030917F00F0
:1005D00040918000509181000E940C0460937E0045
:1005E00070937F0080938000909381006E0129E2D8
:1005F000C20ED11C25E43DE33AA729A7F6011282D9
:10060000045C1F4F22E030E044E050E00E940E0600
:10061000B801C6010E942E06F60101900020E9F7FC
:100620003197F182E08288E690E093838283A6018D
:1006300060E082E00E943C012FE135E84BEE5FE391
:10064000C501B4010E947D044B015C01C0906000B3
:10065000D0906100E0906200F0906300A7019601E5
:100660000E94780418167CF0A5019401C701B60118
:100670000E940B046093600070936100809362009D
:100680009093630010C0109260001092610010926D
:100690006200109263001092820010928300109208
:1006A00084001092850085E0E4E6F0E0DE01AB59BD
:1006B000BF4F01900D928A95E1F7AE014B595F4F04
:1006C00060E083E00E943C0182E590E063969FAF8A
:1006D0008EAF639701E510E00C0F1D1F0F5F1F4FDA
:1006E0006091600070916100809162009091630060
:1006F00022E030E045E050E00E940E06AE014F5A85
:100700005F4F64E083E00E943C01C858DF4F0FB6A2
:10071000F894DEBF0FBECDBFDF91CF911F910F9137
:10072000FF90EF90DF90CF90BF90AF909F908F9011
:1007300008950E9470026091600070916100809144
:1007400062009091630020E030E0A9010E947804EB
:10075000181674F08BB38F7E8BBB49E650E069E0CE
:1007600081E00E943C0183E08A95F1F70000089542
:100770008BB380618BBB41E750E069E081E00E9470
:100780003C0183E08A95F1F7000008958EB58C60F6
:100790008EBD82E19AE79BBD8ABD89B7806189BF22
:1007A000789408951F920F920FB60F9211248F9391
:1007B0009F9380917C0090917D00019690937D00A5
:1007C00080937C00809178009091790090937B00D9
:1007D00080937A0080917C0090917D0090937900C5
:1007E000809378009F918F910F900FBE0F901F9074
:1007F00018958AB38B7F8ABB8AB3877F8ABB8AB3FB
:1008000080618ABB0E94C6000E9408010E94C60344
:100810000E949903FDCF5058BB27AA270E942304AA
:100820000C9467050E94590538F00E94600520F07D
:1008300039F49F3F19F426F40C9456050EF4E09514
:10084000E7FB0C945005E92F0E94780558F3BA177E
:10085000620773078407950720F079F4A6F50C94D6
:100860009A050EF4E0950B2EBA2FA02D0B01B901BD
:1008700090010C01CA01A0011124FF27591B99F016
:10088000593F50F4503E68F11A16F040A22F232F22
:10089000342F4427585FF3CF469537952795A79572
:1008A000F0405395C9F77EF41F16BA0B620B730B19
:1008B000840BBAF09150A1F0FF0FBB1F661F771F8A
:1008C000881FC2F70EC0BA0F621F731F841F48F43F
:1008D000879577956795B795F7959E3F08F0B0CFC8
:1008E0009395880F08F09927EE0F979587950895AF
:1008F0000E942C0508F481E008950E9491040C9454
:1009000067050E94600558F00E94590540F029F4DF
:100910005F3F29F00C94500551110C949B050C94E9
:1009200056050E94780568F39923B1F3552391F396
:10093000951B550BBB27AA2762177307840738F04E
:100940009F5F5F4F220F331F441FAA1FA9F335D0AB
:100950000E2E3AF0E0E832D091505040E695001C5F
:10096000CAF72BD0FE2F29D0660F771F881FBB1F19
:10097000261737074807AB07B0E809F0BB0B802DF7
:10098000BF01FF2793585F4F3AF09E3F510578F023
:100990000C9450050C949B055F3FE4F3983ED4F310
:1009A000869577956795B795F7959F5FC9F7880FF7
:1009B000911D9695879597F90895E1E0660F771F49
:1009C000881FBB1F621773078407BA0720F0621BDA
:1009D000730B840BBA0BEE1F88F7E0950895E8942B
:1009E00009C097FB3EF490958095709561957F4F77
:1009F0008F4F9F4F9923A9F0F92F96E9BB27939525
:100A0000F695879577956795B795F111F8CFFAF434
:100A1000BB0F11F460FF1BC06F5F7F4F8F4F9F4F65
:100A200016C0882311F096E911C0772321F09EE8C3
:100A3000872F762F05C0662371F096E8862F70E029
:100A400060E02AF09A95660F771F881FDAF7880F03
:100A50009695879597F90895990F0008550FAA0B59
:100A6000E0E8FEEF16161706E807F907C0F01216C1
:100A70001306E407F50798F0621B730B840B950BC4
:100A800039F40A2661F0232B242B252B21F4089519
:100A90000A2609F4A140A6958FEF811D811D0895B6
:100AA00097F99F6780E870E060E008959FEF80EC21
:100AB000089500240A9416161706180609060895C4
:100AC00000240A9412161306140605060895092E2A
:100AD0000394000C11F4882352F0BB0F40F4BF2B99
:100AE00011F460FF04C06F5F7F4F8F4F9F4F0895D9
:100AF00057FD9058440F551F59F05F3F71F04795CF
:100B0000880F97FB991F61F09F3F79F087950895B3
:100B1000121613061406551FF2CF4695F1DF08C0D2
:100B2000161617061806991FF1CF869571056105EF
:100B300008940895E894BB2766277727CB0197F997
:100B400008950E94B4050C9467050E94590538F079
:100B50000E94600520F0952311F00C9450050C9430
:100B6000560511240C949B050E94780570F3959FFF
:100B7000C1F3950F50E0551F629FF001729FBB2794
:100B8000F00DB11D639FAA27F00DB11DAA1F649F30
:100B90006627B00DA11D661F829F2227B00DA11DE3
:100BA000621F739FB00DA11D621F839FA00D611D69
:100BB000221F749F3327A00D611D231F849F600D8A
:100BC000211D822F762F6A2F11249F5750409AF0B3
:100BD000F1F088234AF0EE0FFF1FBB1F661F771F3F
:100BE000881F91505040A9F79E3F510580F00C940A
:100BF00050050C949B055F3FE4F3983ED4F3869533
:100C000077956795B795F795E7959F5FC1F7FE2BA9
:100C1000880F911D9695879597F90895EF920F93F8
:100C20001F93CF93DF93E80147FD02C034E001C07A
:100C300034E1042E000C550B57FF03C0519541952C
:100C40005109E32E022F242FAE010E943906CE0156
:100C5000DF91CF911F910F91EF900895FB01DC017F
:100C60000D900020E9F7119701900D920020E1F717
:100C70000895A9E0B0E0EFE3F6E00C9471086A0192
:100C8000122FB02E2BE3201720F0FF24F394F00E48
:100C900002C02CE3F22E0F2D27E0AE014F5F5F4F15
:100CA0000E949307BC014981842F8970813031F003
:100CB000E1FC06C0E0FE06C090E205C09DE203C074
:100CC0009BE201C090E05E2D507143FF3CC091114A
:100CD00002C083E001C084E0811718F4212F281B93
:100CE00001C020E051110BC0F601822F30E28823B1
:100CF00019F031938150FBCFC20ED11C20E0992313
:100D000029F0D6019C93F60131966F01C601039636
:100D1000E2FE0AC03EE4D6013C9341E411964C93B6
:100D2000119712963C9306C03EE6F601308341E6E9
:100D300041833283FC01322F40E2332309F442C065
:100D400041933150FACF42FF44C0911102C083E079
:100D500001C084E0811718F4212F281B01C020E076
:100D600051110BC0F601822F30E2882319F0319324
:100D70008150FBCFC20ED11C20E0992329F0D6016F
:100D80009C93F60131966F01C6010396E2FE0BC0FB
:100D900039E4D6013C933EE411963C93119736E436
:100DA00012963C9307C039E6F60130833EE6318364
:100DB00036E63283FC01322F40E2332319F04193AF
:100DC0003150FBCFFC01E20FF11D10828EEF9FEF3F
:100DD000A6C021E030E0911102C020E030E01616FC
:100DE00017061CF4FB01319602C0E1E0F0E02E0F83
:100DF0003F1FBB2021F0EB2DF0E0319602C0E0E078
:100E0000F0E02E0F3F1FE12FF0E02E173F071CF4FC
:100E1000121B212F01C020E08E2D887159F4F6019C
:100E2000822F30E2882319F031938150FBCFC20E1C
:100E3000D11C20E0992329F0D6019C93F60131962C
:100E40006F0151110BC0F601822F90E3882319F036
:100E500091938150FBCFC20ED11C20E00F2D060FC5
:100E60009A81342F307144FF03C0913309F401504B
:100E7000101624F4093018F008E001C001E0AB01BD
:100E800077FF02C040E050E0FB01E41BF50BA1E05E
:100E9000B0E0AC0FBD1FEA0FFB1F8EE2A82E4B0186
:100EA000801A91080B2D10E01195019511094F3F03
:100EB000BFEF5B0721F4D601AC9211966D01641768
:100EC00075072CF08416950614F4818101C080E327
:100ED000415051093196D60111967D0140175107B5
:100EE00024F0D6018C936701E2CF6417750739F4BB
:100EF000963320F4953319F4311101C081E3F601E2
:100F00008083F701822F90E2882319F0919381501A
:100F1000FBCFF701E20FF11D108280E090E02996EF
:100F2000ECE00C948D08283008F027E03327DA0134
:100F3000990F311D87FD916000966105710539F4A7
:100F400032602E5F3D9330E32A95E1F708959F3F8D
:100F500030F080387105610509F03C5F3C5F3D93DE
:100F6000913008F08068911DDF93CF931F930F930A
:100F7000FF92EF92192F987F9695E92F9695969567
:100F8000E90FFF27E255FF4F99273327EE24FF246F
:100F9000A701E70105900894079428F4360FE71E8F
:100FA000F81E491F511D660F771F881F991F069451
:100FB000A1F70590079428F4E70EF81E491F561F65
:100FC000C11D770F881F991F661F0694A1F7059012
:100FD000079428F4F80E491F561FC71FD11D880F0C
:100FE000991F661F771F0694A1F70590079420F4B8
:100FF000490F561FC71FD81F990F661F771F881FDD
:101000000694A9F784911095177041F0D695C7956D
:1010100057954795F794E7941A95C1F7E4E5F0E002
:1010200068941590159135916591959105907FE2A1
:101030007395E118F10A430B560BC90BD009C0F7A1
:10104000E10CF11E431F561FC91FD01D7EF47033E3
:1010500011F48A95E6CFE894015030F0080F0AF4B5
:101060000027021708F4202F2395022F7A3328F047
:1010700079E37D932A95E9F710C07D932A9589F647
:10108000069497956795379517951794E118F10A87
:10109000430B560BC90BD00998F023957E9173959D
:1010A0007A3308F070E37C932013B8F77E91706177
:1010B0007D9330F0839571E37D9370E32A95E1F79A
:1010C0001124EF90FF900F911F91CF91DF919927FD
:1010D00087FD909508952F923F924F925F926F9265
:1010E0007F928F929F92AF92BF92CF92DF92EF92B8
:1010F000FF920F931F93CF93DF93CDB7DEB7CA1B39
:10110000DB0B0FB6F894DEBF0FBECDBF09942A8863
:10111000398848885F846E847D848C849B84AA840B
:10112000B984C884DF80EE80FD800C811B81AA8198
:10113000B981CE0FD11D0FB6F894DEBF0FBECDBF63
:08114000ED010895F894FFCFC2
:101148001F85EB3F42414C3D005077723A4F46466F
:08115800005077723A4F4E007F
:00000001FF
